:100000000C9480000C94A8000C94A8000C94A800F8
:100010000C94A8000C94A8000C94A8000C94A800C0
:100020000C94A8000C94A8000C94A8000C94320521
:100030000C94A8000C94A8000C94A8000C94A800A0
:100040000C94E8040C94A8000C94B6040C9490044E
:100050000C94A8000C94A8000C94A8000C94A80080
:100060000C94A8000C94A800036EDB363D9A999975
:10007000993DABAAAA2A3E000000803F072C7AA532
:10008000BA6CC590DA3B9365FC8BBC53F810FD3C11
:100090005692834DBD879D3AB63DCBC9BF5BBE73BB
:1000A000DA0FC93F00000000240027002A000000EA
:1000B0000000250028002B000000000800020100BD
:1000C0000003040700000000000000000000000022
:1000D000230026002900040404040404040402028A
:1000E00002020202030303030303010204081020B7
:1000F00040800102040810200102040810204E066E
:1001000011241FBECFEFD8E0DEBFCDBF11E0A0E0CD
:10011000B1E0EEEAF9E102C005900D92A038B10716
:10012000D9F722E0A0E8B1E001C01D92A537B207DF
:10013000E1F710E0C0E8D0E004C02197FE010E9482
:10014000CF0CCF37D107C9F70E9486060C94D50C87
:100150000C940000AF92BF92CF92DF92EF92FF9289
:100160000F931F93CF93DF936C017B018B01040FDF
:10017000151FEB015E01AE18BF08C017D10759F07B
:100180006991D601ED91FC910190F081E02DC601BD
:100190000995892B79F7C501DF91CF911F910F91B7
:1001A000FF90EF90DF90CF90BF90AF900895FC014B
:1001B000538D448D252F30E0842F90E0821B930BCC
:1001C000541710F0CF96089501970895FC01918D72
:1001D000828D981761F0A28DAE0FBF2FB11D5D9675
:1001E0008C91928D9F5F9F73928F90E008958FEF17
:1001F0009FEF0895FC01918D828D981731F0828DCB
:10020000E80FF11D858D90E008958FEF9FEF089521
:10021000FC01918D228D892F90E0805C9F4F821B85
:1002200091098F73992708958FEC91E00E9408013E
:1002300021E0892B09F420E0822F089580E090E0EE
:10024000892B29F00E94140181110C94000008955B
:10025000FC01A48DA80FB92FB11DA35ABF4F2C913B
:10026000848D90E001968F739927848FA689B78932
:100270002C93A089B1898C91837080648C93938D29
:10028000848D981306C00288F389E02D80818F7DCC
:1002900080830895EF92FF920F931F93CF93DF9384
:1002A000EC0181E0888F9B8D8C8D98131AC0E889B2
:1002B000F989808185FF15C09FB7F894EE89FF8981
:1002C0006083E889F98980818370806480839FBF1F
:1002D00081E090E0DF91CF911F910F91FF90EF901F
:1002E0000895F62E0B8D10E00F5F1F4F0F7311272F
:1002F000E02E8C8D8E110CC00FB607FCFACFE8896A
:10030000F989808185FFF5CFCE010E942801F1CFC8
:10031000EB8DEC0FFD2FF11DE35AFF4FF0829FB7DD
:10032000F8940B8FEA89FB8980818062CFCFCF93CD
:10033000DF93EC01888D8823B9F0AA89BB89E8890D
:10034000F9898C9185FD03C0808186FD0DC00FB6B3
:1003500007FCF7CF8C9185FFF2CF808185FFEDCF31
:10036000CE010E942801E9CFDF91CF91089590E05E
:10037000FC01E854FF4F2491FC01E651FF4F3491FA
:10038000FC01EA52FF4FE491EE23C9F0222339F039
:10039000233001F1A8F4213019F1223029F1F0E0E5
:1003A000EE0FFF1FE255FF4FA591B4918FB7F89460
:1003B000EC91611126C030953E233C938FBF089588
:1003C0002730A9F02830C9F0243049F78091800007
:1003D0008F7D03C0809180008F7780938000DFCF76
:1003E00084B58F7784BDDBCF84B58F7DFBCF8091C3
:1003F000B0008F778093B000D2CF8091B0008F7D16
:10040000F9CF3E2BDACFCF93DF9390E0FC01E6519A
:10041000FF4F24918A529F4FFC0184918823D1F091
:1004200090E0880F991FFC01EC55FF4FA591B49106
:10043000FC01E255FF4FC591D49161110EC09FB7E9
:10044000F8948C91E22FE0958E238C932881E223FF
:10045000E8839FBFDF91CF9108958FB7F894EC9117
:10046000E22BEC938FBFF6CF3FB7F8948091AB01AE
:100470009091AC01A091AD01B091AE0126B5A89BC1
:1004800005C02F3F19F00196A11DB11D3FBFBA2F26
:10049000A92F982F8827BC01CD01620F711D811DE6
:1004A000911D42E0660F771F881F991F4A95D1F76B
:1004B00008958F929F92AF92BF92CF92DF92EF9268
:1004C000FF924B015C010E9434026B017C010E948F
:1004D00034026C197D098E099F09683E73408105BD
:1004E0009105A8F321E0821A9108A108B10888EECD
:1004F000C80E83E0D81EE11CF11C81149104A104F4
:10050000B10429F7FF90EF90DF90CF90BF90AF90AC
:100510009F908F900895CF92DF92EF92FF92CF93AA
:10052000DF93EC01603282E07807CCF5653B710522
:1005300014F064EB70E0898128E830E0281B310971
:1005400087FD3395220F331F220F331F6901330FAD
:10055000EE08FF088A8128E532E0281B310987FD73
:100560003395220F331F220F331F032E000C440B31
:10057000550B2C193D094E095F09DB0177FF02C0BD
:10058000B0E0A0E00E94760924EB30E040E050E0CB
:100590000E944C09C20ED31EE41EF51EB601E8816E
:1005A000EC3070F5298188E890E0821B910927FDE5
:1005B0009395880F991F880F991F681779077CF00A
:1005C0002A8188E592E0821B910927FD9395880F87
:1005D000991F880F991F681779070CF4CB010297B0
:1005E000880F991F4FB7F8942E2F30E0F901EE0FC6
:1005F000FF1FE20FF31FEE57FE4F928381834FBF21
:10060000DF91CF91FF90EF90DF90CF9008951F93EF
:10061000CF93DF93EC01162F88818C3008F04EC009
:1006200061E0812F0E9403028881282F30E0F901C8
:10063000EE0FFF1FE20FF31FEE57FE4F1F73608197
:10064000607C612B608319821A822CE0622F0E94E9
:10065000C30C829FB001112430E020E0AB01420FB7
:10066000531FFA01EE0FFF1FE40FF51FEE57FE4F69
:10067000908196FD16C02F5F3F4F2C30310571F7EA
:1006800081110FC01092800082E08093810010924F
:10069000850010928400B19A80916F0082608093EF
:1006A0006F00E8818E2F90E0FC01EE0FFF1FE80F36
:1006B000F91FEE57FE4F8081806480838881DF912F
:1006C000CF911F910895FC0101900020E9F7319727
:1006D000AF01481B590BBC018FEC91E00C94AA00B0
:1006E0008F929F92AF92BF920F931F93CF93DF93FE
:1006F000CDB7DEB7A1970FB6F894DEBF0FBECDBF62
:1007000019A2423008F44AE08E010F5D1F4F842E7B
:10071000912CB12CA12CA50194010E947E09E62FF9
:10072000B901CA01EA30F4F4E05DD801EE938D011D
:10073000232B242B252B79F790E080E0109719F0DC
:10074000CD010E946303A1960FB6F894DEBF0FBEE1
:10075000CDBFDF91CF911F910F91BF90AF909F9030
:100760008F900895E95CE1CF4F925F926F927F92F4
:100770008F929F92AF92BF92CF92DF92EF92FF92B1
:100780000F931F93CF936B017C01742EAC019B01DF
:100790000E94A90C882399F082E191E0CF911F91EA
:1007A0000F91FF90EF90DF90CF90BF90AF909F9010
:1007B0008F907F906F905F904F900C9463034601F1
:1007C0005701E894B7F82FEF3FEF4FE75FE7C50118
:1007D000B4010E94A90C81110DC02FEF3FEF4FE72C
:1007E0005FE7C501B4010E94370A18161CF486E1C0
:1007F00091E0D4CF2FEF3FEF4FE75FE4C701B601A1
:100800000E94F10B18161CF48AE191E0C7CF2FEF7C
:100810003FEF4FE75FECC701B6010E94370A87FD43
:10082000F3CF20E030E0A901C701B6010E94370AEA
:1008300010E000E087FF0AC06DE28FEC91E00E94BB
:100840004A018C01F7FAF094F7F8F094C0E060E008
:1008500070E080E09FE37C1641F020E030E040E271
:1008600051E40E943C0ACF5FF6CFA70196010E9497
:10087000B0092B013C010E94B50A4B015C014AE022
:100880000E9470037C01E00EF11ECC23C1F1C50172
:10089000B4010E94E40A9B01AC01C301B2010E94B1
:1008A000AF094B015C016EE28FEC91E00E944A01BE
:1008B000E80EF91EC15018F120E030E040E251E4AA
:1008C000C501B4010E94F60B2B013C010E94B50A40
:1008D0004B01B12CA12C4AE0C501B4010E94700368
:1008E000E80EF91EC501B4010E94E40A9B01AC01A7
:1008F000C301B2010E94AF094B015C01DBCFC7010C
:10090000CF911F910F91FF90EF90DF90CF90BF900C
:10091000AF909F908F907F906F905F904F900895D1
:100920001F920F920FB60F9211242F933F934F9364
:100930005F936F937F938F939F93AF93BF93EF9347
:10094000FF938FEC91E00E942801FF91EF91BF91FE
:10095000AF919F918F917F916F915F914F913F9157
:100960002F910F900FBE0F901F9018951F920F920E
:100970000FB60F9211242F938F939F93EF93FF93B2
:10098000E091DF01F091E0018081E091E501F091DB
:10099000E60182FD1BC090818091E8018F5F8F731B
:1009A0002091E901821741F0E091E801F0E0E15384
:1009B000FE4F958F8093E801FF91EF919F918F916A
:1009C0002F910F900FBE0F901F9018958081F4CF3C
:1009D0001F920F920FB60F9211242F933F938F9374
:1009E0009F93AF93BF938091A7019091A801A0918D
:1009F000A901B091AA013091A60123E0230F2D3760
:100A000058F50196A11DB11D2093A6018093A70161
:100A10009093A801A093A901B093AA018091AB0182
:100A20009091AC01A091AD01B091AE010196A11DD4
:100A3000B11D8093AB019093AC01A093AD01B09335
:100A4000AE01BF91AF919F918F913F912F910F90E8
:100A50000FBE0F901F90189526E8230F0296A11D38
:100A6000B11DD2CF1F920F920FB60F9211242F9368
:100A70003F934F935F936F937F938F939F93AF9326
:100A8000BF93CF93DF93EF93FF9380918001C09149
:100A90008101D0E087FF24C010928500109284006D
:100AA000809180018F5F8093800180918001082E6A
:100AB000000C990B8C179D0724F4809180018C30D9
:100AC000C4F18091840090918500049680349C4903
:100AD00008F47AC08091840090918500049676C0D5
:100AE00080918001082E000C990B8C179D07C4F68D
:100AF000E09180018E2FEE0F990BFC01EE0FFF1F8E
:100B0000E80FF91FEE57FE4F808186FFC9CFE091B5
:100B100080018E2FEE0F990BFC01EE0FFF1FE80FE7
:100B2000F91FEE57FE4F808160E08F730E94B7017E
:100B3000B7CF2091840030918500E09180018E2F05
:100B4000EE0F990BFC01EE0FFF1FE80FF91FEE5798
:100B5000FE4F81819281820F931F90938900809331
:100B60008800E09180018E2FEE0F990BFC01EE0FB3
:100B7000FF1FE80FF91FEE57FE4F808186FF11C05F
:100B8000E09180018E2FEE0F990BFC01EE0FFF1FFD
:100B9000E80FF91FEE57FE4F808161E08F730E94CE
:100BA000B701FF91EF91DF91CF91BF91AF919F91ED
:100BB0008F917F916F915F914F913F912F910F9006
:100BC0000FBE0F901F90189580E49CE990938900C8
:100BD000809388008FEF80938001E3CFCF92DF92E4
:100BE000EF92FF920F931F93E82FF92F05C001504A
:100BF00011092109310961F1908196239417B9F304
:100C000005C0015011092109310911F19081962384
:100C10009413F7CFC12CD12CE12CF12C0AC08FEF0B
:100C2000C81AD80AE80AF80A0C151D052E053F0552
:100C300079F080818623841791F36C2D7D2D8E2D84
:100C40009F2D1F910F91FF90EF90DF90CF9008950F
:100C500060E070E080E090E01F910F91FF90EF90D6
:100C6000DF90CF900895FC01909181019C3098F421
:100C700081E0890F809381019083892F90E0FC01AE
:100C8000EE0FFF1FE80FF91FEE57FE4F88EB9BE0BA
:100C90009283818308958FEF80830895EFECF1E0D4
:100CA0001382128288EE93E0A0E0B0E08483958303
:100CB000A683B78384E091E09183808385EC90E004
:100CC0009587848784EC90E09787868780EC90E016
:100CD000918B808B81EC90E0938B828B82EC90E007
:100CE000958B848B86EC90E0978B868B118E128E81
:100CF000138E148E82E792E00E9433068FE692E014
:100D00000E9433068CE692E00C943306789484B506
:100D1000826084BD84B5816084BD85B5826085BDF7
:100D200085B5816085BD80916E00816080936E0085
:100D30001092810080918100826080938100809177
:100D40008100816080938100809180008160809328
:100D500080008091B10084608093B1008091B000E8
:100D600081608093B00080917A00846080937A00E3
:100D700080917A00826080937A0080917A0081600D
:100D800080937A0080917A00806880937A00109234
:100D9000C10063E070E082E792E00E94070365E033
:100DA00070E08FE692E00E94070366E070E08CE658
:100DB00092E00E94070361E089E00E94030260E084
:100DC0008BE00E940302E091DF01F091E00182E0FC
:100DD0008083E091DB01F091DC011082E091DD0184
:100DE000F091DE018FEC80831092E701E091E30146
:100DF000F091E40186E08083E091E101F091E2016D
:100E0000808180618083E091E101F091E201808145
:100E100088608083E091E101F091E2018081806847
:100E20008083E091E101F091E20180818F7D8083F8
:100E30006AE570E08FE692E00E948B0264E670E063
:100E400080E090E00E94590270E060E08CE692E061
:100E50000E948B0264E670E080E090E00E945902FC
:100E600093E2A92EB12C23E0822E912C30E0232E88
:100E700030E0332E60E570E08FE692E00E948B0256
:100E800070E060E08CE692E00E948B0264E670E025
:100E900080E090E00E9459021092CB011092CC01A8
:100EA0001092CD011092CE01C090CB01D090CC0118
:100EB000E090CD01F090CE0120E030E044E353E437
:100EC000C701B6010E94370A18160CF48BC1C7017E
:100ED000B6010E94AE0A82E792E00E948B0264EBA8
:100EE00070E080E090E00E94590261E089E00E9499
:100EF000B701C5010197F1F760E089E00E94B701F1
:100F0000C4010197F1F7E5EFF0E06491E1EEF0E064
:100F10008491E82FF0E0EE0FFF1FE453FF4F85911F
:100F2000949100E412E42FE030E0462F0E94EE0599
:100F3000611571058105910529F06F5F7F4F8F4F16
:100F40009F4F9F700E94E40A26E933E44BE05DE383
:100F50000E94F60B20E030E040E05FE30E94F60BD9
:100F60006093C7017093C8018093C9019093CA012F
:100F70008EE191E00E9463036091CB017091CC01FE
:100F80008091CD019091CE0142E00E94B40320E017
:100F900030E048EC52E46091C7017091C801809143
:100FA000C9019091CA010E943C0A6093C7017093E5
:100FB000C8018093C9019093CA018FE291E00E9419
:100FC00063036091C7017091C8018091C90190913C
:100FD000CA0142E00E94B403C090C701D090C8018A
:100FE000E090C901F090CA012DEC3CEC4CEC5EE3C2
:100FF000C701B6010E94F10B18160CF043C02AE994
:1010000039E949E15FE3C701B6010E94370A87FF6A
:1010100039C0C091C101D091C2014090BD01509032
:10102000BE016090BF017090C0012091CB01309152
:10103000CC014091CD015091CE016091C3017091DE
:10104000C4018091C5019091C6010E94B0096093CE
:10105000C3017093C4018093C5019093C60121968A
:10106000D093C201C093C101A3019201C701B6018F
:101070000E94B0096093BD017093BE018093BF01CF
:101080009093C0016091C1017091C201072E000CC4
:10109000880B990B0E94E60A6B017C01AC019B0155
:1010A0006091BD017091BE018091BF019091C0011E
:1010B0000E943C0A6093B9017093BA018093BB010E
:1010C0009093BC01A70196016091C3017091C40186
:1010D0008091C5019091C6010E943C0A6093B501C0
:1010E0007093B6018093B7019093B80188E491E0C2
:1010F0000E9463036091B9017091BA018091BB01B4
:101100009091BC0142E00E94B4038AE591E00E9404
:1011100063036091B5017091B6018091B701909120
:10112000B80142E00E94B40323EC35EF4CE151E4F6
:101130006091B9017091BA018091BB019091BC019D
:101140000E94F60B2CE83AE44CE951E40E943C0A78
:101150000E941C0A20E030E040E05FE30E94F60BB2
:1011600020E030E044E353E40E94F60B2BED3FE037
:1011700049E450E40E943C0A9B01AC0160E070E04D
:1011800080EA92E40E94AF096093B1017093B201CA
:101190008093B3019093B4018CE691E00E946303C5
:1011A0006091B1017091B2018091B3019091B4014D
:1011B00042E00E94B40320E030E040E85FE3609149
:1011C000CB017091CC018091CD019091CE010E9414
:1011D000B0096093CB017093CC018093CD019093C3
:1011E000CE0162CE84EB90E09093B0018093AF018A
:1011F000C091AF01D091B001BE010D2E000C880B43
:10120000990B0E94E60A2091B5013091B6014091F8
:10121000B7015091B8010E94F10B18168CF4BE0171
:1012200082E792E00E948B0264E670E080E090E04A
:101230000E9459022197D093B001C093AF01D8CF3B
:101240006091B1017091B2018091B3019091B401AC
:101250000E94AE0A8FE692E00E948B0268EE73E075
:1012600080E090E00E94590266E970E08CE692E02E
:101270000E948B0268E873E180E090E00E945902CE
:101280002114310409F4F6CD0E941401882309F4D5
:10129000F1CD0E940000EECD052E97FB1EF40094C8
:1012A0000E94630957FD07D00E947E0907FC03D006
:1012B0004EF40C94630950954095309521953F4F1D
:1012C0004F4F5F4F089590958095709561957F4F32
:1012D0008F4F9F4F08950E94A009A59F900DB49F26
:1012E000900DA49F800D911D11240895B7FF0C94BB
:1012F0006B090E946B09821B930B0895A1E21A2EC1
:10130000AA1BBB1BFD010DC0AA1FBB1FEE1FFF1FA9
:10131000A217B307E407F50720F0A21BB30BE40BF9
:10132000F50B661F771F881F991F1A9469F7609540
:101330007095809590959B01AC01BD01CF010895FA
:10134000A29FB001B39FC001A39F700D811D112406
:10135000911DB29F700D811D1124911D089550584B
:10136000BB27AA270E94C7090C94B70B0E94A90BA0
:1013700038F00E94B00B20F039F49F3F19F426F4A6
:101380000C946B0B0EF4E095E7FB0C94650BE92FC6
:101390000E94C80B58F3BA176207730784079507B2
:1013A00020F079F4A6F50C94EA0B0EF4E0950B2EE0
:1013B000BA2FA02D0B01B90190010C01CA01A001A7
:1013C0001124FF27591B99F0593F50F4503E68F102
:1013D0001A16F040A22F232F342F4427585FF3CF43
:1013E000469537952795A795F0405395C9F77EF414
:1013F0001F16BA0B620B730B840BBAF09150A1F05D
:10140000FF0FBB1F661F771F881FC2F70EC0BA0FE2
:10141000621F731F841F48F4879577956795B7956A
:10142000F7959E3F08F0B0CF9395880F08F0992765
:10143000EE0F9795879508959F939F77EEE38937F1
:101440009E0728F4E8E6F0E00E94950B0CC00E948D
:10145000210B9058A2EA2AED3FE049EC5FE30E949D
:10146000C7090E94B70B0F9007FC905808950E947F
:10147000410B08F481E008950E94500A0C94B70BC8
:101480000E94B00B58F00E94A90B40F029F45F3F76
:1014900029F00C94650B51110C94EB0B0C946B0B15
:1014A0000E94C80B68F39923B1F3552391F3951B60
:1014B000550BBB27AA2762177307840738F09F5F75
:1014C0005F4F220F331F441FAA1FA9F335D00E2EE2
:1014D0003AF0E0E832D091505040E695001CCAF74F
:1014E0002BD0FE2F29D0660F771F881FBB1F261712
:1014F00037074807AB07B0E809F0BB0B802DBF01E9
:10150000FF2793585F4F3AF09E3F510578F00C94B7
:10151000650B0C94EB0B5F3FE4F3983ED4F3869598
:1015200077956795B795F7959F5FC9F7880F911DD8
:101530009695879597F90895E1E0660F771F881FC4
:10154000BB1F621773078407BA0720F0621B730B77
:10155000840BBA0BEE1F88F7E09508950E94B50A38
:101560006894B1110C94EB0B08950E94D00B88F095
:101570009F5798F0B92F9927B751B0F0E1F0660F57
:10158000771F881F991F1AF0BA95C9F714C0B13098
:1015900091F00E94EA0BB1E008950C94EA0B672FDA
:1015A000782F8827B85F39F0B93FCCF386957795C7
:1015B0006795B395D9F73EF49095809570956195B0
:1015C0007F4F8F4F9F4F0895E89409C097FB3EF4DB
:1015D00090958095709561957F4F8F4F9F4F992380
:1015E000A9F0F92F96E9BB279395F69587957795FE
:1015F0006795B795F111F8CFFAF4BB0F11F460FFBE
:101600001BC06F5F7F4F8F4F9F4F16C0882311F015
:1016100096E911C0772321F09EE8872F762F05C029
:10162000662371F096E8862F70E060E02AF09A95C4
:10163000660F771F881FDAF7880F9695879597F9B9
:101640000895DF93CF931F930F938B01EC01ECE789
:10165000F0E00E946E0B0E94B70B9801AE018B0167
:10166000EC0160E070E080E89FE30E94AF090E9417
:10167000690C9801AE010F911F91CF91DF910C94ED
:10168000090C990F0008550FAA0BE0E8FEEF16169B
:101690001706E807F907C0F012161306E407F50766
:1016A00098F0621B730B840B950B39F40A2661F0DA
:1016B000232B242B252B21F408950A2609F4A1407D
:1016C000A6958FEF811D811D089597F99F6780E88A
:1016D00070E060E008959FEF80EC0895DF93CF9372
:1016E0001F930F93FF92EF92DF927B018C0168941E
:1016F00006C0DA2EEF010E94090CFE01E894A591C4
:101700002591359145915591A6F3EF010E94C709A6
:10171000FE019701A801DA9469F7DF90EF90FF903E
:101720000F911F91CF91DF9108959F938F937F9396
:101730006F93FF93EF939B01AC010E94F60BEF9127
:10174000FF910E946E0B2F913F914F915F910C94EE
:10175000F60B00240A9416161706180609060895B3
:1017600000240A9412161306140605060895092E7D
:101770000394000C11F4882352F0BB0F40F4BF2BEC
:1017800011F460FF04C06F5F7F4F8F4F9F4F08952C
:1017900057FD9058440F551F59F05F3F71F0479522
:1017A000880F97FB991F61F09F3F79F08795089507
:1017B000121613061406551FF2CF4695F1DF08C026
:1017C000161617061806991FF1CF86957105610543
:1017D00008940895E894BB2766277727CB0197F9EB
:1017E00008950E94410B08F48FEF08950E94090CA0
:1017F0000C94B70B0E94A90B38F00E94B00B20F09C
:10180000952311F00C94650B0C946B0B11240C9424
:10181000EB0B0E94C80B70F3959FC1F3950F50E03E
:10182000551F629FF001729FBB27F00DB11D639F92
:10183000AA27F00DB11DAA1F649F6627B00DA11D38
:10184000661F829F2227B00DA11D621F739FB00DDE
:10185000A11D621F839FA00D611D221F749F33274E
:10186000A00D611D231F849F600D211D822F762FE7
:101870006A2F11249F5750409AF0F1F088234AF0C4
:10188000EE0FFF1FBB1F661F771F881F9150504030
:10189000A9F79E3F510580F00C94650B0C94EB0B5F
:1018A0005F3FE4F3983ED4F3869577956795B795B7
:1018B000F795E7959F5FC1F7FE2B880F911D9695D1
:1018C000879597F9089519F416F40C946B0B0C9402
:1018D000AE0C0E94D00BB8F39923C9F3B6F39F570F
:1018E000550B87FF0E94BC0C0024A0E640EA900143
:1018F00080585695979528F4805C660F771F881F4F
:1019000020F026173707480730F4621B730B840B4F
:10191000202931294A2BA695179407942025312593
:101920004A2758F7660F771F881F20F026173707BA
:10193000480730F4620B730B840B200D311D411DE1
:10194000A09581F7B901842F9158880F96958795B6
:1019500008950E94410B880B990B08959F3F31F029
:10196000915020F4879577956795B795880F911DCD
:101970009695879597F9089591505040660F771F77
:10198000881FD2F70895991B79E004C0991F961714
:1019900008F0961B881F7A95C9F780950895EE0F79
:0E19A000FF1F0590F491E02D0994F894FFCFFD
:1019AE00000000004A01AA00D70097010801E600D6
:1019BE00FA006E616E00696E66006F7666000A2030
:1019CE002D2D2D2D3E2020706F7331202020000AEA
:1019DE00202D2D2D2D2D2D2D3E2064697374616EBD
:1019EE00636520636D2020000A202D2D2D2D3E20B5
:1019FE00206469737461202020000A202D2D2D2D66
:101A0E003E2020616E676C65202020000A202D2D5F
:101A1E002D2D3E20203220736572766F20202000FF
:00000001FF
